:020000040800F2
:100000003009002089010008A52A00083F260008C1
:10001000A12A00089D020008FD320008000000002F
:10002000000000000000000000000000C92B0008D4
:10003000A102000800000000A92A0008CB2B00083C
:10004000A3010008A3010008A3010008A301000800
:10005000A3010008A3010008A3010008A3010008F0
:10006000A3010008A3010008A3010008A3010008E0
:10007000A3010008A3010008A3010008A3010008D0
:10008000A3010008A3010008A3010008A3010008C0
:10009000A3010008A3010008A3010008A3010008B0
:1000A000A3010008A3010008A3010008A3010008A0
:1000B0003D2C00084D2C0008A3010008A3010008F6
:1000C000A3010008A3010008A3010008A301000880
:1000D000A3010008A3010008A3010008ED320008F5
:1000E000A3020008A3010008A301000800F002F821
:1000F00000F03AF80AA090E8000C82448344AAF188
:100100000107DA4501D100F02FF8AFF2090EBAE885
:100110000F0013F0010F18BFFB1A43F0010318473B
:1001200088470000A8470000103A24BF78C878C16B
:10013000FAD8520724BF30C830C144BF04680C60ED
:10014000704700000023002400250026103A28BF35
:1001500078C1FBD8520728BF30C148BF0B60704739
:100160001FB51FBD10B510BD00F058F81146FFF7C0
:10017000F7FF03F011FA00F076F803B4FFF7F2FF8F
:1001800003BC00F07DF8000009488047094800479B
:10019000FEE7FEE7FEE7FEE7FEE7FEE7FEE7FEE737
:1001A000FEE7FEE704480549054A064B7047000094
:1001B000392C0008ED000008300300203009002031
:1001C00030050020300500204FF0000200B5134636
:1001D00094469646203922BFA0E80C50A0E80C5067
:1001E000B1F12001BFF4F7AF090728BFA0E80C5018
:1001F00048BF0CC05DF804EB890028BF40F8042B11
:1002000008BF704748BF20F8022B11F0804F18BF7D
:1002100000F8012B7047704770477047754600F033
:100220002BF8AE4605006946534620F00700854688
:1002300018B020B5FFF7B6FFBDE820404FF000062C
:100240004FF000074FF000084FF0000B21F00701BE
:10025000AC46ACE8C009ACE8C009ACE8C009ACE801
:10026000C0098D46704710B50446AFF300802046A4
:10027000BDE81040FFF781BF00487047CC02002066
:1002800001491820ABBEFEE7260002007047002897
:1002900001DD014600E041420846704700BFFEE72D
:1002A000704710B54FF4804000F032F910BD72B6BF
:1002B00000BFFEE72DE9F04107460C4615461E46F5
:1002C000384603F05DF90746204603F059F9044625
:1002D000284603F055F90546304603F051F9064625
:1002E000002F0ADD01221146384800F0B7FA00223B
:1002F0000221364800F0B2FA09E000220121334819
:1003000000F0ACFA01220221304800F0A7FA002CDC
:100310000ADD012204212D4800F0A0FA0022082164
:100320002A4800F09BFA09E000220421274800F047
:1003300095FA01220821254800F090FA002D0ADDE7
:1003400001221021214800F089FA002220211F48B3
:1003500000F084FA09E0002210211C4800F07EFA27
:1003600001222021194800F079FA002E0ADD01222D
:100370004021164800F072FA00228021134800F054
:100380006DFA09E000224021104800F067FA0122CE
:1003900080210E4800F062FA3846FFF778FF0C49DA
:1003A000096848632046FFF772FF094909688863B6
:1003B0002846FFF76CFF06490968C8633046FFF717
:1003C00066FF034909680864BDE8F0810008014040
:1003D000680100200146002291F82100022808D07F
:1003E0000420886300BF002081F8200000BF0120A6
:1003F00070470868006820F00E000B6818600868F5
:10040000006820F001000B68186091F8403001206E
:100410009840CB6B5860012081F8210000BF00207C
:1004200081F8200000BF1046E2E7000070B50446E6
:10043000002594F82100022803D00420A0630125A0
:1004400048E02068006820F00E00216808602068FD
:10045000006820F00100216808601F492068884278
:1004600001D1012026E01C4914312068884201D1C5
:1004700010201FE0184928312068884201D18015DA
:1004800018E015493C312068884201D1801411E000
:10049000114950312068884202D14FF4803009E080
:1004A0000D4964312068884202D14FF4801001E088
:1004B0004FF08070084908394860012084F8210015
:1004C00000BF002084F8200000BF606B10B1204600
:1004D000616B8847284670BD0800024070B504462D
:1004E00000F0C2F906462546681C10B104480078A1
:1004F000054400BF00F0B8F9801BA842FAD370BDD4
:10050000E80000200121014A1160704738000020F6
:1005100010B5044604480068204020B10248046039
:100520002046FFF7EFFF10BD140401402DE9F84706
:100530000346002294466EE14FF0010808FA02F4E7
:10054000D1F8008008EA0400A0427DD1DFF8DCA2E7
:10055000D1F80480A8EB0A09D0453AD014DCB8F1F0
:10056000030F50D009DCB8F1000F31D0B8F1010F02
:100570001CD0B8F1020F49D120E0B8F1110F18D00A
:10058000B8F1120F42D11EE0B9F5881F25D006DC64
:10059000B9F5803F20D0B9F5801F37D11AE0B9F501
:1005A000001F18D0B9F5041F30D117E0D1F80CC0E6
:1005B0002DE0D1F80C8008F1040C28E0D1F80C8073
:1005C00008F1080C23E0D1F80C8008F10C0C1EE0B7
:1005D00000BF00BF00BF00BF00BF00BFD1F8088050
:1005E000B8F1000F02D14FF0040C0BE0D1F80880F5
:1005F000B8F1010F03D14FF0080C1C6102E04FF07D
:10060000080C5C6103E04FF0000C00E000BF00BF8D
:10061000FF2801D8984601E003F104084646FF2868
:1006200002D84FEA820803E0A2F108084FEA8808DE
:100630004746D6F800804FF00F0909FA07F928EA73
:1006400009080CFA07F900E088E048EA0908C6F84A
:100650000080D1F8048008F08058B8F1805F7DD127
:1006600000BFDFF8CC81D8F8188048F00108DFF827
:10067000C091C9F81880C846D8F8188008F0010859
:10068000CDF8008000BF00BF4FEAB9384FEA9209A9
:1006900058F829504FEA82784FEA18794FF00F083E
:1006A00008FA09F825EA0805DFF88881434502D1F0
:1006B0004FF0000816E0DFF88081434502D14FF08B
:1006C00001080FE0DFF87481434502D14FF00208C2
:1006D00008E0DFF86C81434502D14FF0030801E0E8
:1006E0004FF004084FEA82794FEA197908FA09F8BD
:1006F00048EA0505DFF84C814FEA920948F829508D
:10070000D1F8048008F48038B8F5803F0AD1DFF8CA
:100710003881D8F8008048EA0008DFF82C91C9F841
:10072000008009E0DFF82081D8F8008028EA00087E
:10073000DFF81491C9F80080D1F8048008F400387B
:10074000B8F5003F10D1DFF8008108F10408D8F8AF
:10075000008048EA0008DFF8F09000E05AE009F174
:100760000409C9F800800DE0DFF8DC8008F1040816
:10077000D8F8008028EA0008DFF8CC9009F10409D5
:10078000C9F80080D1F8048008F48018B8F5801FFB
:100790000ED1DFF8B48008F10808D8F8008048EAE4
:1007A0000008DFF8A49009F10809C9F800800DE0FD
:1007B000DFF8948008F10808D8F8008028EA0008DB
:1007C000DFF8849009F10809C9F80080D1F80480A5
:1007D00008F40018B8F5001F0ED1DFF86C8008F19E
:1007E0000C08D8F8008048EA0008DFF85C9009F1AE
:1007F0000C09C9F800800DE0DFF84C8008F10C0806
:10080000D8F8008028EA0008DFF83C9009F10C09CC
:10081000C9F80080521CD1F8008028FA02F8B8F11B
:10082000000F7FF489AEBDE8F887000000001110CA
:100830000010024000080140000C0140001001407F
:100840000014014008000140000401400246936882
:100850000B400BB1012000E0002070470AB101619C
:1008600001E00B0403617047014800687047000015
:10087000E000002070B504460CB9012070BD94F86A
:100880003D0028B9002084F83C00204600F0DAF84A
:10089000242084F83D002068006820F001002168D1
:1008A00008602068006840F4004021680860206803
:1008B000006820F400402168086000F09DFA0546B9
:1008C0005C496068884206D85B48854201D20120B5
:1008D00007E0002005E05948854201D2012000E0F0
:1008E0000020012800D1C9E75548B5FBF0F6206883
:1008F000406820F03F003043216848604D496068FF
:10090000884201D8701C07E04FF4967070434FF492
:100910007A71B0FBF1F0401C2168096A21F03F01B7
:1009200008432168086243496068884214D8681EF9
:1009300061684900B0FBF1F0401CC0F30B000428D3
:1009400001D204203DE0681E61684900B0FBF1F06F
:10095000401CC0F30B0034E0A06838B9681E616821
:1009600001EB4101B0FBF1F0401C0AE0681E616838
:1009700001EBC10202EB0111B0FBF1F0401C40F4AD
:100980008040C0F30B0008B901201AE0A06848B904
:10099000681E616801EB4101B0FBF1F0401CC0F33F
:1009A0000B000CE0681E616801EBC10202EB011153
:1009B000B0FBF1F0401CC0F30B0040F4804040F469
:1009C00000402168C9694CF6FF72914308432168D1
:1009D000C861D4E9070108432168096821F0C00112
:1009E000084321680860D4E9031008432168896836
:1009F00048F2FF329143084321688860D4E9050139
:100A000008432168C96821F0FF0108432168C860D4
:100A10002068006840F00100216808600020206420
:100A2000202084F83D000020206384F83E0000BFB1
:100A300024E70000A086010080841E0000093D001C
:100A400040420F0010B586B004460020029003908B
:100A5000049005901A49206888422FD100BF194898
:100A6000806940F00800174988610846806900F0F5
:100A70000800019000BF00BF4FF4407002901220A8
:100A800003900320059002A90F48FFF74FFD00BF18
:100A90000E49486840F0E06040F00200486000BF46
:100AA00000BF0848C06940F400100649C861084604
:100AB000C06900F40010019000BF00BF06B010BD77
:100AC0000054004000100240000C014000000140B2
:100AD00003480068034909780844014908607047E1
:100AE000E0000020E800002010B50848006840F051
:100AF000100006490860032000F09EF80F2000F067
:100B000007F800F02BF8002010BD00000020024084
:100B100070B504460E4800784FF47A71B1FBF0F0DE
:100B20000C490968B1FBF0F5284600F001FC08B15A
:100B3000012070BD102C07D200222146501E00F06B
:100B40003DF80548046001E00120F2E70020F0E7ED
:100B5000E8000020EC000020E400002008B500BF01
:100B60000D48806940F001000B49886108468069A2
:100B700000F00100009000BF00BF00BF0846C06940
:100B800040F08050C8610846C06900F08050009075
:100B900000BF00BF08BD000000100240014608462B
:100BA000002809DB00F01F0301229A4043099B0043
:100BB00003F1E023C3F8002100BF70472DE9F05F87
:100BC00080460D461646002702F09AFB0746394636
:100BD0002A46334601F00700C0F1070ABAF1040FB4
:100BE00002D94FF0040A01E0C0F1070AD14600F132
:100BF000040ABAF1070F02D24FF0000A01E0A0F197
:100C0000030AD4464FF0010A0AFA09FAAAF1010AC6
:100C10000AEA020A0AFA0CFA4FF0010B0BFA0CFB73
:100C2000ABF1010B0BEA030B4AEA0B0421464046E9
:100C300002F06EFBBDE8F09F00BF00F00702064B1C
:100C400019684FF6FF031940044B0B4343EA022196
:100C5000014B196000BF70470CED00E00000FA0581
:100C600070B504460D460CB9012070BD5A480068A5
:100C700000F00700A8420ED25748006820F0070095
:100C80002843554908600846006800F00700A8425C
:100C900001D00120E9E7207800F0020002281DD1F0
:100CA000207800F00400042805D14C48406840F446
:100CB000E0604A494860207800F00800082805D123
:100CC0004648406840F460504449486043484068A2
:100CD00020F0F000A168084340494860207800F007
:100CE000010078B36068012806D13C48006800F430
:100CF000003090B90120B8E76068022806D1374873
:100D0000006800F0007040B90120AEE73348006889
:100D100000F0020008B90120A7E73048406820F041
:100D20000300616808432D494860FFF79DFD0646B2
:100D300009E0FFF799FD801B41F28831884202D912
:100D4000032092E707E02548406800F00C00616846
:100D5000B0EB810FEDD12048006800F00700A842F9
:100D60000ED91D48006820F0070028431A49086082
:100D70000846006800F00700A84201D0012074E78F
:100D8000207800F00400042807D11448406820F4BB
:100D9000E060E168084311494860207800F00800ED
:100DA000082808D10D48406820F46050216940EAC5
:100DB000C1000A49486000F03FF808494968C1F39A
:100DC0000311074A515CC84006490860064800689C
:100DD000FFF79EFE002048E700200240001002407E
:100DE0008E480008EC000020E40000200148006864
:100DF00070470000EC00002000B5FFF7F7FF044942
:100E00004968C1F30221034A515CC84000BD00009B
:100E1000001002409E48000800B5FFF7E7FF0449B4
:100E20004968C1F3C221034A515CC84000BD0000BB
:100E3000001002409E480008F0B585B00FF26C0C1F
:100E40009CE8E01001A8A0E8E0101CA52D68009522
:100E500000210022002300240020194D696801F0C0
:100E60000C05F5B1042D02D0082D19D101E015486B
:100E700019E001ADC1F38346AC5D01F4803555B195
:100E80000F4D6D68C5F340451DF805200D4D6543B8
:100E9000B5FBF2F302E00C4D04FB05F3184602E04B
:100EA00000BF084800BF00BF05B0F0BD0203040545
:100EB000060708090A0B0C0D0E0F101001020000A6
:100EC0000010024000127A0000093D00F8B5044607
:100ED0000CB90120F8BD207800F00100002878D07E
:100EE000F848406800F00C0004280CD0F548406831
:100EF00000F00C00082811D1F248406800F480305E
:100F0000B0F5803F0AD1EF48006800F400300028B7
:100F10005FD0606800285CD10120DBE700BF60681B
:100F2000B0F5803F06D1E748006840F48030E549DD
:100F3000086028E0606858B9E248006820F4803012
:100F4000E04908600846006820F4802008601AE044
:100F50006068B0F5A02F0BD1DA48006840F480201B
:100F6000D84908600846006840F4803008600AE00C
:100F7000D448006820F48030D249086008460068F0
:100F800020F48020086000BF606888B1FFF76CFC27
:100F9000054606E0FFF768FC401B642801D90320E2
:100FA00098E7C848006800F400300028F2D010E04C
:100FB000FFF75AFC054606E0FFF756FC401B642885
:100FC00001D9032086E7BF48006800F400300028FC
:100FD000F2D1207800F00200022857D1B9484068C9
:100FE00000F00C0050B1B748406800F00C00082831
:100FF00018D1B448406800F4803098B9B14800680E
:1010000000F0020020B12069012801D0012061E731
:10101000AC48006820F0F800616940EAC100A949C5
:10102000086033E02069E8B10120A7490860FFF7B4
:101030001BFC054606E0FFF717FC401B022801D900
:10104000032047E79F48006800F002000028F2D024
:101050009C48006820F0F800616940EAC1009949A5
:10106000086013E0002098490860FFF7FDFB054683
:1010700006E0FFF7F9FB401B022801D9032029E70E
:101080009048006800F002000028F2D1207800F0BB
:10109000080008282DD1A069B8B101208B4908604B
:1010A000FFF7E2FB054606E0FFF7DEFB401B0228E8
:1010B00001D903200EE78348406A00F002000028AF
:1010C000F2D0012001F0F2FC13E000207F4908601B
:1010D000FFF7CAFB054606E0FFF7C6FB401B0228E8
:1010E00001D90320F6E67748406A00F002000028A4
:1010F000F2D1207800F00400042873D10027714851
:10110000C06900F0805070B900BF6E48C06940F0FF
:1011100080506C49C8610846C06900F0805000905A
:1011200000BF00BF01276A48006800F48070B0B9B2
:101130006748006840F4807065490860FFF794FBD9
:10114000054606E0FFF790FB401B642801D9032009
:10115000C0E65F48006800F480700028F2D000BF4D
:10116000E068012806D15748006A40F0010055495F
:10117000086227E0E06858B95248006A20F0010090
:10118000504908620846006A20F00400086219E02D
:10119000E06805280BD14B48006A40F0040049493B
:1011A00008620846006A40F0010008620AE045480B
:1011B000006A20F00100434908620846006A20F0F6
:1011C0000400086200BFE068A0B1FFF74DFB0546D0
:1011D00009E0FFF749FB401B41F28831884202D900
:1011E000032077E622E03748006A00F0020000287A
:1011F000EFD012E0FFF738FB054608E0FFF734FBBD
:10120000401B41F28831884201D9032062E62D4813
:10121000006A00F002000028F0D1012F05D1294812
:10122000C06920F080502749C86100BFE069C8B399
:101230002448406800F00C00082860D0E0690228CB
:1012400048D1002020490866FFF70EFB054606E05E
:10125000FFF70AFB401B022801D903203AE6194890
:10126000006800F000700028F2D1206AB0F5803FDD
:1012700007D11448406820F40030A16808431149A0
:101280004860D4E9080108430E49496821F4741103
:1012900008430C49486001200B490866FFF7E4FA4F
:1012A000054607E03DE0FFF7DFFA401B022801D9C1
:1012B00003200FE60348006800F000700028F2D019
:1012C0002FE0000000100240000042428004424231
:1012D00000700040002014490866FFF7C5FA054673
:1012E00006E0FFF7C1FA401B022801D90320F1E50F
:1012F0000E48006800F000700028F2D111E0E069AB
:10130000012800D1E6E50948466806F48031206AE4
:10131000814204D106F47011606A814201D001203B
:10132000D8E50020D6E5000000004242001002404F
:1013300070B504462546681EB0F1807F01D30120B8
:101340000FE0681E4FF0E02148610F214FF0FF30A1
:1013500001F0DEFF00204FF0E021886107200861E6
:10136000002070BD7047704710B50346002200BFD3
:1013700093F83C00012801D1022010BD012083F820
:101380003C0000BF22F0FF00CC6840EA040222F4D7
:1013900040708C6840EA040222F480604C6840EAA5
:1013A000040222F400600C6840EA040222F4805037
:1013B0000C6940EA040222F400504C6940EA04023D
:1013C00022F48040CC6940EA04021868426400BFFD
:1013D000002083F83C0000BF00BFCEE730B50246D6
:1013E0000B4600BF92F83C00012801D1022030BD1D
:1013F000012082F83C0000BF022082F83D00106806
:1014000044681068816824F0700418680443106808
:101410004460104D1068A8420BD01068B0F1804FA6
:1014200007D00D4D1068A84203D00C4D1068A8429B
:1014300005D121F0800158680143106881600120C6
:1014400082F83D0000BF002082F83C0000BF00BFD2
:10145000CDE70000002C01400004004000080040DF
:1014600010B504460CB9012010BD94F83D0028B910
:10147000002084F83C00204600F026F8022084F882
:101480003D00211D206801F0E9FB012084F84600A1
:1014900000BF84F83E0001213F2001554020015546
:1014A0004120015500BF00BF012084F842004320C5
:1014B0000155442001554520015500BF012084F805
:1014C0003D000020D0E7000010B586B004460020A3
:1014D00002900390049005902F49206888420DD116
:1014E00000BF2E48806940F400602C49886108469E
:1014F000806900F40060019000BF4AE02068B0F10C
:10150000804F16D100BF2548C06940F00100234933
:10151000C8610846C06900F00100019000BF00BF2B
:10152000002211461C20FFF749FB1C20FFF736FB69
:101530002FE01B49206888422BD100BF1748C069A3
:1015400040F002001549C8610846C06900F0020079
:10155000019000BF00BF00BF0846806940F008004E
:1015600088610846806900F00800019000BF00BF54
:101570000120029000200390049002A90948FEF780
:10158000D5FF002211461D20FFF718FB1D20FFF795
:1015900005FB06B010BD0000002C01400010024009
:1015A00000040040000C0140014691F83D00012874
:1015B00001D001207047022081F83D000868C06812
:1015C00040F001000B68D860124B086898420BD0BD
:1015D0000868B0F1804F07D00F4B0868984203D0DD
:1015E0000E4B086898420CD10868806800F007022A
:1015F000062A0CD00868006840F001000B681860EB
:1016000005E00868006840F001000B6818600020E1
:10161000D0E70000002C014000040040000800401A
:101620002DE9F04104460D4600BF94F83C00012826
:1016300002D10220BDE8F081012084F83C0000BF07
:10164000022084F83D002068866826F0770626F49C
:101650007F46206886602868502833D00CDC20281C
:1016600050D004DC00284BD0102851D149E030285C
:1016700049D040284CD139E060282DD0702807D0BF
:10168000B0F5805F03D0B0F5005F41D10DE040E0E0
:10169000D5E902136A68206801F02BFB2068866890
:1016A00046F077062068866033E0D5E902136A6861
:1016B000206801F01EFB2068806840F480402168AB
:1016C000886026E0EA686968206801F0E3FB502141
:1016D000206801F019FB1CE0EA686968206801F0E5
:1016E00021FC6021206801F00FFB12E0EA686968C4
:1016F000206801F0CFFB4021206801F005FB08E0E5
:1017000000BF00BF00BF2968206801F0FDFA00E0BB
:1017100000BF00BF012084F83D0000BF002084F816
:101720003C0000BF00BF85E710B504461D49206896
:10173000884235D11C480078012802D002282ED1D9
:101740001DE00821194800F077FD1949086000BF25
:1017500016480068006A20F400701449096808629D
:1017600012480068006A40F4007010490968086275
:1017700000BF0D480078401C0B4908700FE008219D
:101780000A4800F059FD0A4948600821074800F05E
:101790005BF905480078401C0349087000BF00BF92
:1017A00010BD0000000400404C000020F8010020A3
:1017B000080100202DE9F04104460D46164600BF01
:1017C00094F83C00012802D10220BDE8F0810120FC
:1017D00084F83C0000BF96B9EB68D5E90012206898
:1017E00001F06CFB2068806920F00C0021688861A2
:1017F00020688069A9680843216888613DE0042E5B
:1018000013D1EB68D5E90012206801F09FFB206836
:10181000806920F440602168886120688069A96837
:1018200040EA01202168886127E0082E12D1EB6888
:10183000D5E90012206801F0A6FB2068C06920F0FD
:101840000C002168C8612068C069A9680843216844
:10185000C86112E0EB68D5E90012206801F0AFFB27
:101860002068C06920F440602168C8612068C069B0
:10187000A96840EA01202168C86100BF002084F8FF
:101880003C0000BF00BFA0E710B504460CB9012022
:1018900010BD94F83D0028B9002084F83C00204693
:1018A00000F025F8022084F83D00211D206801F099
:1018B000D5F9012084F8460000BF84F83E000121DC
:1018C0003F200155402001554120015500BF00BF78
:1018D000012084F842004320015544200155452051
:1018E000015500BF012084F83D000020D0E770477B
:1018F0002DE9F04104460D4615B994F83E000BE081
:10190000042D02D13F20005D06E0082D02D14020C9
:10191000005D01E04120005D074615B994F84200E2
:101920000BE0042D02D14320005D06E0082D02D11A
:101930004420005D01E04520005D8046012F02D17A
:10194000B8F1010F02D00120BDE8F0811DB90220DD
:1019500084F83E000EE0042D03D102213F20015502
:1019600008E0082D03D102214020015502E00221A8
:10197000412001551DB9022084F842000EE0042DDB
:1019800003D102214320015508E0082D03D1022193
:101990004420015502E002214520015535B1042DB6
:1019A0000BD0082D10D00C2D1CD114E02068C0687D
:1019B00040F002002168C86015E02068C06840F06F
:1019C00004002168C8600EE02068C06840F008008C
:1019D0002168C86007E02068C06840F010002168F6
:1019E000C86000E000BF00BF01222946206801F066
:1019F0006FF91249206888420BD02068B0F1804FFF
:101A000007D00F492068884203D00E4920688842D9
:101A10000CD12068806800F00706062E0CD02068E4
:101A2000006840F001002168086005E02068006857
:101A300040F0010021680860002085E7002C01408B
:101A4000000400400008004030B504460D4635B1A2
:101A5000042D0BD0082D10D00C2D1CD114E02068C3
:101A6000C06820F002002168C86015E02068C068E6
:101A700020F004002168C8600EE02068C06820F0F3
:101A800008002168C86007E02068C06820F01000E6
:101A90002168C86000E000BF00BF0022294620681E
:101AA00001F016F900BF2068006A41F211110840E8
:101AB00050B92068006A8910084028B92068006879
:101AC00020F001002168086000BF1DB9012084F8E2
:101AD0003E000EE0042D03D101213F20015508E016
:101AE000082D03D101214020015502E001214120B0
:101AF00001551DB9012084F842000EE0042D03D1E8
:101B000001214320015508E0082D03D10121442083
:101B1000015502E0012145200155002030BD10B5DE
:101B2000044620680069C0F34000D8B12068C0684E
:101B3000C0F34000B0B16FF00200216808610120DD
:101B400020772068806900F0030018B12046FFF775
:101B5000EBFD05E0204600F0F9F8204600F0C0F962
:101B60000020207720680069C0F38000D8B1206889
:101B7000C068C0F38000B0B16FF004002168086154
:101B8000022020772068806900F4407018B1204658
:101B9000FFF7CAFD05E0204600F0D8F8204600F027
:101BA0009FF90020207720680069C0F3C000D8B1F9
:101BB0002068C068C0F3C000B0B16FF008002168B1
:101BC0000861042020772068C06900F0030018B184
:101BD0002046FFF7A9FD05E0204600F0B7F82046B3
:101BE00000F07EF90020207720680069C0F3001023
:101BF000D8B12068C068C0F30010B0B16FF0100019
:101C000021680861082020772068C06900F44070CE
:101C100018B12046FFF788FD05E0204600F096F851
:101C2000204600F05DF9002020772068006900F070
:101C3000010058B12068C06800F0010030B16FF0B9
:101C4000010021680861204600F004FA206800695C
:101C5000C0F3C01058B12068C068C0F3C01030B1E4
:101C60006FF08000216808612046FFF77BFB206849
:101C70000069C0F3801058B12068C068C0F38010BC
:101C800030B16FF0400021680861204600F0EDFAA5
:101C900020680069C0F3401058B12068C068C0F3E4
:101CA000401030B16FF02000216808612046FFF736
:101CB0005AFB10BD10B586B0044600200290039078
:101CC000049005901C492068884218D100BF1B4829
:101CD000806940F00400194988610846806900F075
:101CE0000400019000BF00BF4FF47060029002201A
:101CF0000390059002A91248FEF718FC1AE011495A
:101D00002068884216D100BF0C48806940F0080066
:101D10000A4988610846806900F00800019000BF08
:101D200000BF4020029002200390059002A90648BF
:101D3000FEF7FCFB06B010BD002C01400010024075
:101D40000008014000080040000C0140704770B5D9
:101D500004460D46164600BF94F83C00012801D108
:101D6000022070BD012084F83C0000BF36B1042E73
:101D70001BD0082E31D00C2E5ED145E029462068BC
:101D800000F0CCFF2068806940F00800216888617D
:101D90002068806920F004002168886120688069DB
:101DA000296908432168886147E02946206800F0D6
:101DB000E5FF2068806940F4006021688861206840
:101DC000806920F4806021688861206880692969C1
:101DD00040EA0120216888612FE02946206801F04F
:101DE00001F82068C06940F008002168C8612068D7
:101DF000C06920F004002168C8612068C0692969B1
:101E000008432168C86118E02946206801F01EF8DF
:101E10002068C06940F400602168C8612068C0691A
:101E200020F480602168C8612068C069296940EA9F
:101E300001202168C86100E000BF00BF00BF002092
:101E400084F83C0000BF00BF8BE710B504460CB916
:101E5000012010BD94F83D0028B9002084F83C0012
:101E6000204600F025F8022084F83D00211D20685E
:101E700000F0F4FE012084F8460000BF84F83E0024
:101E800001213F200155402001554120015500BF4F
:101E900000BF012084F84200432001554420015531
:101EA0004520015500BF012084F83D000020D0E707
:101EB00008B5094A016891420DD100BF0749C969B7
:101EC00041F00401054AD1611146C96901F00401DC
:101ED000009100BF00BF08BD000800400010024094
:101EE0007047000070B504460D4615B994F83E00E1
:101EF0000BE0042D02D13F20005D06E0082D02D149
:101F00004020005D01E04120005D012801D001205A
:101F100070BD1DB9022084F83E000EE0042D03D1EF
:101F200002213F20015508E0082D03D10221402065
:101F3000015502E002214120015501222946206875
:101F400000F0C6FE19492068884201D1012000E056
:101F5000002028B12068406C40F4004021684864AB
:101F60001249206888420BD02068B0F1804F07D01A
:101F70000F492068884203D00E49206888420CD15E
:101F80002068806800F00706062E0CD020680068E4
:101F900040F001002168086005E02068006840F01A
:101FA0000100216808600020B2E70000002C014019
:101FB000000400400008004030B504460D460022F1
:101FC0002946206800F084FE21492068884201D11A
:101FD000012000E0002090B100BF2068006A41F2BB
:101FE0001111084050B92068006A8910084028B9CA
:101FF0002068406C20F400402168486400BF00BFA6
:102000002068006A41F21111084050B92068006A46
:102010008910084028B92068006820F00100216874
:10202000086000BF1DB9012084F83E000EE0042DB9
:1020300003D101213F20015508E0082D03D10121E2
:102040004020015502E0012141200155002030BD12
:10205000002C01402DE9F04104462068B0F1804F8A
:102060007ED161480068401C5F49086008460068EE
:102070000A2803D10020086000F02CFD01F0CCF903
:102080005A4908600846006859490860574801687D
:102090005848006802F024FA56490860564801681A
:1020A0005248006802F07EFB544908600846016807
:1020B0005348006802F0AAFA06464E4801685148A3
:1020C000006802F0A3FA0746494801684E480068D4
:1020D00002F09CFA8046394602F002FA0546314683
:1020E00002F0FEF94949086040480068424908602A
:1020F00047480068012847D146480068401C4549C8
:10210000086045480068012101EB4000434931F96E
:10211000100040490968884236D100203D490860D6
:102120003D480068401C3C490860084600681E287D
:1021300001D10020086000BF3748006840003749DF
:1021400031F91000364991FBF0F0401E354909681D
:10215000C862314800684000304931F9100000E0A1
:1021600012E02F4991FBF0F0401E2E49C86000BFDD
:10217000294800684000294931F910002A4991FB9B
:10218000F0F02849096848632848006850B30020E7
:10219000264908604FF480412548FEF757FB08BBED
:1021A0002448006808B9012000E0002021490860A7
:1021B0000846006850B1012251031D48FEF74EFB4E
:1021C000012211031A48FEF749FB0BE000224FF4ED
:1021D00000511748FEF742FB00224FF4805114488B
:1021E000FEF73CFBBDE8F081440000200C0000201D
:1021F00010000020140000202400002018000020FF
:102200000800002004000020000000201C00002026
:10221000D4000020CC000020D0000020540000207A
:1022200040420F004002002020A10700380000209B
:10223000000C0140340000200246002031B1042986
:1022400007D0082908D00C290CD108E01368586B76
:1022500009E01368986B06E01368D86B03E0136815
:10226000186C00E000BF00BF7047704770477047B0
:102270002DE9F84F0446206805682068C668206884
:1022800047694FF00009CA4605F00F09B9F1000F80
:102290000AD105F0200038B106F0200020B1204618
:1022A00000F0E0FEBDE8F88FB9F1000F71D007F043
:1022B000010018B906F4907000286AD005F00100FA
:1022C00030B106F4807018B1206C40F00100206439
:1022D00005F0040030B107F0010018B1206C40F0A7
:1022E0000200206405F0020030B107F0010018B1CF
:1022F000206C40F00400206405F0080048B106F0AE
:10230000200010B907F0010018B1206C40F008005F
:102310002064206C68B305F0200028B106F020008E
:1023200010B1204600F09EFE20684069C0F3801A7C
:10233000206C00F0080010B9BAF1000F22D020463E
:1023400000F065FE2068406900F04000B0B12068F0
:10235000406920F0400021684861A06B50B15648A8
:10236000A16B4863A06BFEF761F810B1A06B416BE5
:1023700088470CE02046FFF77AFF08E02046FFF789
:1023800076FF04E02046FFF772FF0020206489E713
:10239000FFE7206B012878D105F01000002874D0E9
:1023A00006F01000002870D000BF002000902068C8
:1023B0000068009020684068009000BF00BF20685F
:1023C000406900F04000C0B3A06B006840681FFA8D
:1023D00080F8B8F1000F2FD0A08D40452CDDA4F877
:1023E0002E80A06B806920281FD02068C06820F450
:1023F00080702168C8602068406920F00100216871
:1024000048612068406920F0400021684861202030
:1024100084F83E00002020632068C06820F010008F
:102420002168C860A06BFDF7D5FFA08DE28D801AF2
:1024300081B22046FFF71AFF34E7FFE7A08DE18D58
:10244000401A1FFA80F8E08DE8B1B8F1000F1AD0F9
:102450002068C06820F490702168C86020684069D6
:1024600020F0010021684861202084F83E0000200F
:1024700020632068C06820F010002168C8604146D1
:102480002046FFF7F3FE0DE7FFE705F0800030B1CF
:1024900006F0800018B1204600F0F7FE02E705F0D4
:1024A000400030B106F0400018B1204600F0CAFDEF
:1024B000F8E600BFF6E60000FB2F000810B5044662
:1024C0000CB9012010BDA06900B100E000BF94F874
:1024D0003D0028B9002084F83C00204600F028F890
:1024E000242084F83D002068C06820F40050216852
:1024F000C860204600F028FE2068006920F4904063
:10250000216808612068406920F02A00216848613C
:102510002068C06840F400502168C8600020206432
:10252000202084F83D0084F83E000020CAE7000027
:1025300010B586B0044600200290039004900590E8
:102540001E492068884236D100BF1D48C06940F44A
:1025500080201B49C8610846C06900F480200190B2
:1025600000BF00BF00BF0846806940F008008861D6
:102570000846806900F00800019000BF00BF081500
:102580000290022003900320059002A90D48FDF758
:10259000CDFF4FF40060029000200390049002A948
:1025A0000848FDF7C3FF002211462720FEF706FB6F
:1025B0002720FEF7F3FA06B010BD000000480040E7
:1025C00000100240000C014070B504460D4616464E
:1025D00094F83E00202816D105B10EB9012070BD37
:1025E00000BF94F83C00012801D10220F7E7012048
:1025F00084F83C0000BF0020206332462946204674
:1026000000F020FEEBE70220E9E7000010B50446E9
:1026100006492068884207D1012205490548FFF78D
:10262000D3FF00200449086010BD000000480040AE
:10263000DC00002088020020D4000020704700BF8A
:10264000FEE7000000B585B00020019002900390E5
:10265000049000BF4A48806940F0100048498861F2
:102660000846806900F01000009000BF00BF00BF66
:102670000846806940F0200088610846806900F0C3
:102680002000009000BF00BF00BF0846806940F0F6
:10269000040088610846806900F00400009000BFD3
:1026A00000BF00BF0846806940F008008861084606
:1026B000806900F00800009000BF00BF0022FF21E9
:1026C0003048FEF7CBF8002243F202012E48FEF715
:1026D000C5F84FF4C040019000200290039001A97A
:1026E0002A48FDF723FFFF200190012002900020DF
:1026F00003900220049001A92248FDF717FF022051
:1027000001900120029002200390049001A91E482C
:10271000FDF70CFF4FF44050019001200290002083
:1027200003900220049001A91748FDF7FFFE4FF423
:1027300080400190164802900120039001A91248A0
:10274000FDF7F4FE4FF480500190002002900390BA
:1027500001A90C48FDF7EAFEB0200190002002908C
:10276000039001A90848FDF7E1FE00221146282048
:10277000FEF724FA2820FEF711FA05B000BD00008C
:102780000010024000080140000C01400010014010
:102790000000211010B50B480B4908600B48486039
:1027A000002109488160C1604FF48041016100212E
:1027B00041618161C1610162FEF75CF808B1FDF71A
:1027C00076FD10BD0054004014010020A0860100D9
:1027D00000B595B0002011901290139014900F90B6
:1027E00010901C2108A8FDF7EFFC20216846FDF79A
:1027F000EBFC374837490860032048600021354822
:10280000816040F2E731C160002101614161816175
:10281000FEF726FE08B1FDF74AFD4FF480501190F7
:1028200011A92C48FEF7FCFE08B1FDF740FD294830
:10283000FFF70BFB08B1FDF73AFD00200F90109059
:102840000FA92448FEF7CAFD08B1FDF730FD60204E
:102850000890002009900A900B900C900D900E901B
:10286000002208A91B48FFF772FA08B1FDF71FFD07
:10287000042208A91748FFF76AFA08B1FDF717FD07
:10288000082208A91348FFF762FA08B1FDF70FFD07
:102890000C2208A90F48FFF75AFA08B1FDF707FD07
:1028A0000020009001900290039004904FF400509B
:1028B00005900020079069460648FEF755FD08B1CF
:1028C000FDF7F5FC0348FFF7F5F915B000BD000072
:1028D000002C01406801002000B587B00020039063
:1028E000049005900690019002904FF080401549A9
:1028F000086040F2CF20486000211248816040F219
:10290000F311C1600021016180218161FEF7A8FD02
:1029100008B1FDF7CCFC4FF48050039003A909489F
:10292000FEF77EFE08B1FDF7C2FC00200190029088
:1029300001A90448FEF752FD08B1FDF7B8FC07B045
:1029400000BD0000B001002000B58BB00020079052
:10295000089009900A9005900690019002900390CB
:1029600004901F481F4908604720486000211D4807
:1029700081604FF6FF71C160002101618161FEF746
:102980006FFD08B1FDF793FC4FF48050079007A945
:102990001448FEF745FE08B1FDF789FC1148FEF723
:1029A00073FF08B1FDF783FC00200590069005A990
:1029B0000C48FEF713FD08B1FDF779FC00200190EB
:1029C00001200290002003900490082201A90548EC
:1029D000FEF7F0FE08B1FDF76AFC0BB000BD000089
:1029E00000040040F801002000B589B000200790E5
:1029F00008901C216846FDF7E7FB19481949086053
:102A00004720486000211748816040F2E731C160EB
:102A1000002101618161FFF718FA08B1FDF747FC59
:102A200000200790089007A90E48FEF7D7FC08B1D0
:102A3000FDF73DFC602000900020019002200290F4
:102A400000200490002269460648FFF780F908B18B
:102A5000FDF72DFC0348FFF72DF909B000BD00007C
:102A6000000800404002002010B50B480B490860E8
:102A70004FF416504860002108488160C160016130
:102A80000C21416100218161C161FFF717FD08B18F
:102A9000FDF70DFC10BD000000480040880200203A
:102AA00000BFFEE700BFFEE77047000008B5084919
:102AB0000968C9084FF47A72B1FBF2F14143009101
:102AC00000BF00BF00994A1E00920029F9D108BD3D
:102AD000EC0000202DE9F0473148007810B10328C0
:102AE0005BD12EE0002202212E48FDF7B7FE022026
:102AF00000F080FC012202212A48FDF7AFFE0A20E7
:102B000000F078FC002202212648FDF7A7FE2448A9
:102B10000078401C2249087000BF23480068006A02
:102B200020F400702049096808621F480068006AA4
:102B30001D490968086200BF08211B48FEF7D8FE3E
:102B40002BE01A48406819490968401A184908607A
:102B50000846006801F0C8FA0646164A164B01F00E
:102B6000D7FA044600224FF0804301F01FF9804657
:102B700001F074FA1149086008460068122803DA67
:102B800001200F49086002E000200D490860002084
:102B9000034908700B49086000BF00BFBDE8F0871B
:102BA0004C000020000C0140F8010020080100202A
:102BB000500000209CC420B07268A13F4800002053
:102BC0003C00002024040040704710B5FDF780FF52
:102BD00010BD00B58FB0282105A8FDF7F5FA142126
:102BE0006846FDF7F1FA01200590000406900020E8
:102BF00007900120099002200C90C1030D914FF421
:102C0000E0110E9105A8FEF761F908B1FDF74FFB41
:102C10000F20009002200190002002904FF480606D
:102C200003900020049002216846FEF719F808B1CD
:102C3000FDF73DFB0FB000BD7047000010B5024826
:102C4000FEF76DFF10BD0000B001002010B5024876
:102C5000FEF765FF10BD0000F801002010B5026806
:102C6000184B984208D0B0F1804F05D0164B9842CF
:102C700002D0164B984203D122F070024B681A43DF
:102C8000104B984208D0B0F1804F05D00E4B9842BF
:102C900002D00E4B984203D122F44072CB681A4303
:102CA00022F080034C6943EA040202608B68C3622D
:102CB0000B688362034B984201D10B6903630123C4
:102CC000436110BD002C014000040040000800409A
:102CD00030B501F01F05012404FA05F3046A9C4392
:102CE0000462046A01F01F0502FA05F52C43046230
:102CF00030BD30B50C46816821F47F4142EA03259E
:102D000025432943816030BD0A46816821F0700166
:102D100042F00703194381607047000030B5056A2F
:102D200025F001050562026A4368846924F0700495
:102D300024F003040D682C4322F002028D682A431C
:102D40000D4DA84206D100BF22F00802CD682A43EB
:102D500022F00402084DA84207D123F4807323F423
:102D600000734D692B438D692B43436084614D682B
:102D70004563026230BD0000002C014030B5056A99
:102D800025F010050562026A4368846924F4E04472
:102D900024F440740D6844EA052422F020028D6872
:102DA00042EA05120E4DA84207D100BF22F0800270
:102DB000CD6842EA051222F04002094DA84209D12D
:102DC00023F4806323F400634D6943EA85038D692E
:102DD00043EA8503436084614D688563026230BDC8
:102DE000002C014030B5056A25F480750562026A41
:102DF0004368C46924F0700424F003040D682C4374
:102E000022F400728D6842EA05220F4DA84207D1D4
:102E100000BF22F40062CD6842EA052222F48062FB
:102E2000094DA84209D123F4805323F400534D697E
:102E300043EA05138D6943EA05134360C4614D6895
:102E4000C563026230BD0000002C014030B5056A48
:102E500025F480550562036A4468C26922F4E042A1
:102E600022F440720D6842EA052223F400538D6873
:102E700043EA0533064DA84204D124F480444D6949
:102E800044EA85144460C2614D680564036230BD44
:102E9000002C014030B50B461446026A056A25F045
:102EA00001050562816921F0F00141EA041122F077
:102EB0000A021A438161026230BD000070B50C46FF
:102EC0001546066A26F0010606628169026A124EFC
:102ED000B04208D0B0F1804F05D0104EB04202D0C1
:102EE0000F4EB04201D1012600E000261EB121F0B4
:102EF0000301294301E041F0010121F0F001F02636
:102F000006EA0316314322F00A0204F00A063243AD
:102F10008161026270BD0000002C0140000400408D
:102F20000008004030B50B461446056A25F0100530
:102F300005628169026A21F4704141EA043122F09C
:102F4000A00242EA03128161026230BD70B50C46F4
:102F50001546066A26F0100606628169026A21F4A7
:102F6000407141EA052121F470414FF4704606EAB0
:102F70000336314322F0A002A02606EA04163243AB
:102F80008161026270BD70B50C461546066A26F472
:102F900080760662C169026A21F00301294321F0AB
:102FA000F001F02606EA0316314322F400724FF4D2
:102FB000007606EA04263243C161026270BD70B534
:102FC0000C461546066A26F480560662C169026AF6
:102FD00021F4407141EA052121F470414FF470461B
:102FE00006EA0336314322F400524FF4005606EA53
:102FF00004363243C161026270BD70B505466C6A29
:103000000020E085E0842046FFF731F970BD0168BB
:10301000C96821F490710268D1600168496921F0A2
:10302000010102685161016B012905D10168C9687C
:1030300021F010010268D160202180F83E100021AB
:103040000163704710B504462068C06820F0400056
:103050002168C860202084F83D002046FFF7EEFA82
:10306000002010BDF8B5044694F83E00222869D12E
:10307000A068B0F5805F0CD1206950B90025A66A20
:1030800020684068C0F308003080A06A801CA062FD
:1030900015E0A56A0026A068B0F5805F03D0A0689F
:1030A00028B9206918B920684068287004E02068B1
:1030B000406800F07F002870A06A401CA062E08D8C
:1030C000401E80B2E085A8BB2068C06820F02000C8
:1030D0002168C8602068C06820F480702168C860DA
:1030E0002068406920F0010021684861202084F8B0
:1030F0003E00206B01281ED1002020632068C0689C
:1031000020F010002168C8602068006800F01000FE
:1031100010280AD100BF00200090206800680090AD
:1031200020684068009000BF00BFA18D2046FFF7D7
:103130009DF803E004E02046FFF768FA0020F8BDA0
:103140000020FCE70220FAE770B50446216809690F
:1031500021F44051E2681143226811612269A1689B
:103160001143626941EA02052168C96841F20C62B3
:10317000914329432268D1602168496921F4407153
:10318000A2691143226851612D4A2168914202D1FE
:10319000FDF742FE01E0FDF72FFE00EBC00101EB61
:1031A000001162689200B1FBF2F100EBC00202EB89
:1031B000001263689B00B2FBF3F26423B2FBF3F2EC
:1031C00002EBC20303EB0212A1EB8201322202EBFB
:1031D00001116422B1FBF2F101F0F00100EBC00239
:1031E00002EB001263689B00B2FBF3F26423B2FBB4
:1031F000F3F201EB021200EBC00101EB0011636876
:103200009B00B1FBF3F100EBC00303EB0013666816
:10321000B600B3FBF6F36426B3FBF6F303EBC30689
:1032200006EB0313A1EB8301322303EB01116423AB
:10323000B1FBF3F101F00F0111442268916070BD00
:103240000038014010B5034699629A85DA8500205E
:103250001864222083F83E0000BF002083F83C0061
:1032600000BF1868C06840F480701C68E06018688F
:10327000406940F001001C6860611868C06840F057
:1032800020001C68E060002010BD014691F83D0060
:10329000212828D18868B0F5805F0BD1086948B92A
:1032A0000A6A1088C0F308000B685860086A801C1E
:1032B000086205E00B6A581C086218780B685860B1
:1032C000C88C401E80B2C88458B90868C06820F015
:1032D00080000B68D8600868C06840F040000B6848
:1032E000D860002070470220FCE7000010B50248BB
:1032F000FEF7BEFF10BD00008802002000BFFEE701
:1033000002480068C0F30220704700000CED00E0A6
:1033100010B5002804DB0A07130E054A135406E013
:103320000A07140E034A00F00F031B1FD45410BDEC
:1033300000E400E018ED00E010B500F081FA6FF055
:10334000C7031A4619461846FCF7B4FF4FF4C87075
:10335000FDF7C4F8264B5A4219461046FCF7AAFF5F
:103360004FF49670FDF7BAF84FF4F0731A46194609
:103370001846FCF79FFF4FF4D270FDF7AFF84FF4FB
:10338000E1735A4219461046FCF794FF4FF4A070BF
:10339000FDF7A4F84FF4FA731A4619461846FCF7DD
:1033A00089FF4FF4AF70FDF799F84FF416735A4246
:1033B00019461046FCF77EFF4FF49670FDF78EF825
:1033C0004FF4DC731A4619461846FCF773FF4FF4A6
:1033D000A570FDF783F8064BC83B5A4219461046C4
:1033E000FCF768FF4FF49670FDF778F810BD000009
:1033F00070FEFFFF70B50446FDF7F8FC0549B0FB11
:10340000F1F000FB04F500BF281EA5F10105FBD17A
:1034100070BD000000093D002DE9F04F93B0802100
:103420004F48FDF713FA4F4908604FF480414E486A
:10343000FDF70CFA4B49486020214948FDF706FA90
:103440004849886010214648FDF700FA4549C860A0
:103450004FF400514448FDF7F9F9424908614FF42F
:1034600080514248FDF7F2F93E49486149698800B8
:1034700000F023FECDE90E013A49086900F01DFE77
:10348000044600223A4B00F043FECDE90A013549DB
:10349000C86800F012FE04460022364B00F038FEE9
:1034A000CDE906012F49886800F007FE0446002296
:1034B000314B00F02DFECDE902012A49486800F0A9
:1034C000FCFD804600222D4B00F022FE04460D46F6
:1034D000244909688900484200F0EFFD064622466B
:1034E0002B4600F0BBFBCDE90001DDE9022300F033
:1034F000B5FBCDE90401DDE9062300F0AFFBCDE922
:103500000801DDE90A2300F0A9FBCDE90C01DDE9A2
:103510000E2300F0A3FBCDE9100100F09FFD8246D1
:10352000104800680F49496808440E4989680844F2
:103530000C49C96808440B490969084409494969A3
:1035400000EB010BBBF1000F07D09AFBFBFA5046D2
:1035500001F044F813B0BDE8F08F0020FAE7000056
:10356000000C0140F0000020001001400008014064
:10357000000004400000F83F0000F8BF000004C055
:10358000B0F57A7F01DB40F2B6300249884200DABA
:10359000084670474AFCFFFFFDF7A6FAFFF719FB44
:1035A000FFF750F8FFF714F9FFF7F4F8FFF75CFAAC
:1035B000FFF7CAF9FFF790F9FFF716FA00217548EF
:1035C000FEF790FC04217348FEF78CFC082171483B
:1035D000FEF788FC0C216F48FEF784FC6E48FDF76F
:1035E000E3FF6E48FDF7E0FF08216B48FEF780F926
:1035F00001226B496B48FEF7E7FF4FF4FA60FCF7D6
:103600006DFF7324002068490860C1E067480068C6
:1036100010B100F015F9BBE061480078622836D09F
:1036200008DCA0F13200052819D2DFE800F0379855
:1036300080A38C006D2842D004DC662810D06C2852
:103640000DD115E072281BD07328F9D158480068B5
:1036500010B101205449086000F0F2F8732496E09C
:103660004FF496731A4619461846FCF723FE8EE06F
:103670004FF496735A4219461046FCF71BFE86E03B
:103680004C4B5A4219461046FCF714FE7FE0494B5A
:103690001A4619461846FCF70DFE78E032244448D5
:1036A000006810B1012040490860434800680128C3
:1036B00002D1FFF741FE01E000F0EEF867E00120E3
:1036C000394908603A49086000213C48FEF70AFC85
:1036D00000203B4908603B49086000BF084600687D
:1036E0004000394931F91000384991FBF0F0401E93
:1036F00032490968C862334800684000324931F9EC
:103700001000324991FBF0F0401E2C49C86000BF08
:103710002C48006840002C4931F910002C4991FBDD
:10372000F0F02649096848631D4804702FE0002026
:103730001D4908601E49086000212048FEF73CFC36
:103740001748047023E001201749086018490860F1
:1037500000211A48FEF7C6FB1148047017E0012249
:1037600051031C48FDF77AF8012211031948FDF7AF
:1037700075F80CE000224FF400511648FDF76EF882
:1037800000224FF480511348FDF768F800BF00BFD6
:103790003CE7000068010020F8010020B001002093
:1037A000DC00002088020020D4000020340000202B
:1037B000D8000020D4FEFFFF3C0000204002002083
:1037C000CC000020D00000205400002040420F0018
:1037D00020A10700000C014010B50A20FCF77EFE76
:1037E00080211348FDF732F8124908604FF48041F8
:1037F0001148FDF72BF80F49486020210C48FDF7D0
:1038000025F80C49886010210948FDF71FF809497F
:10381000C8604FF400510848FDF718F805490861E1
:103820004FF480510548FDF711F80249486110BD79
:10383000000C0140F0000020001001400008014091
:1038400010B5002201211348FDF708F800220221DB
:103850001048FDF703F8002204210E48FCF7FEFF94
:10386000002208210B48FCF7F9FF0022102109482B
:10387000FCF7F4FF002220210648FCF7EFFF0022AE
:1038800040210448FCF7EAFF002280210148FCF7B0
:10389000E5FF10BD000801402DE9F041EA4800684D
:1038A00001285DD1E8488068012859D1E648C06800
:1038B000002855D1E4480069002851D1E248406908
:1038C00000284DD1FFF7BCFF01225103DF48FCF770
:1038D000C5FF01221103DD48FCF7C0FF9620FCF76D
:1038E000FDFD00224FF40051D848FCF7B7FF00223D
:1038F0004FF48051D548FCF7B1FFD54C25462B46F7
:10390000224629462046FCF7D5FC2320FCF7E6FD9D
:10391000CF4C643C65422B46224629462046FCF7A4
:10392000C9FC06E0FFF758FF01225103C748FCF726
:1039300095FFC548806801280BD0C348C06801289E
:1039400007D0C1480069012803D0BF484069012859
:10395000E8D100224FF40051BC48FCF77FFF2EE174
:10396000B948006800285DD1B7484068002859D19F
:10397000B5488068002855D1B348C068012851D1A6
:10398000B148406901284DD1FFF75AFF0122510388
:10399000AE48FCF763FF01221103AC48FCF75EFF61
:1039A0009620FCF79BFD00224FF40051A748FCF73E
:1039B00055FF00224FF48051A448FCF74FFFA44C60
:1039C00025462B46224629462046FCF773FC232039
:1039D000FCF784FD40F28A2465422B4622462946A4
:1039E0002046FCF767FC06E0FFF7F6FE0122110314
:1039F0009648FCF733FF9448006801280BD09248A2
:103A00004068012807D090488068012803D08E487C
:103A1000C0680128E8D100224FF480518B48FCF7A0
:103A20001DFFCCE088480068012866D186484068C0
:103A3000002862D18448806800285ED18248C0682E
:103A400000285AD180480069002856D17E48406934
:103A5000002852D1FFF7F4FE012251037B48FCF706
:103A6000FDFE012211037948FCF7F8FE9620FCF7D1
:103A700035FD00224FF400517448FCF7EFFE0022A0
:103A80004FF480517148FCF7E9FE714C3234254601
:103A90002B46224629462046FCF70CFC3220FCF738
:103AA0001DFD6B4C963C65422B462246294620461E
:103AB000FCF700FC06E0FFF78FFE0122510363488C
:103AC000FCF7CCFE6048406801280FD05E48806853
:103AD00001280BD05C48C068012807D05A4800690B
:103AE000012803D0584840690128E4D100224FF44E
:103AF00000515648FCF7B2FE61E0534800680028C8
:103B00005DD151484068002859D14F488068D0BBEA
:103B10004D48C068B8BB4C480069A0BB4A484069E2
:103B200001284CD1FFF78CFE012251034748FCF7D6
:103B300095FE012211034548FCF790FE9620FCF704
:103B4000CDFC00224FF400514048FCF787FE0022D4
:103B50004FF480513D48FCF781FE3D4C3234254600
:103B60002B46224629462046FCF7A4FB3220FCF7D0
:103B7000B5FC4FF42F7465422B4622462946204659
:103B8000FCF798FB07E01AE0FFF726FE012211037D
:103B90002E48FCF763FE2C48006801280FD02A4805
:103BA000406801280BD028488068012807D02648A3
:103BB000C068012803D0244800690128E4D1601BB3
:103BC000B0F5C87F05DD012211032048FCF746FE51
:103BD00015E0281BB0F5C87F05DD012251031B4805
:103BE000FCF73CFE0BE000224FF400511748FCF7B5
:103BF00035FE00224FF480511448FCF72FFE154883
:103C0000006800F0EBFC074613480168384600F0F6
:103C100067FC064600F0C6FC04460E48006800F04B
:103C2000DDFC07460C480168384600F0BBFD06463F
:103C300000F0B8FC05462B46224629462046FCF7F4
:103C400039FBBDE8F0810000F0000020000C0140CD
:103C5000DAFDFFFF2C0000201C00002010B591EAC7
:103C6000030F48BF83F0004300F15883841A71EBBF
:103C7000030C05D2121943EB0C03001B61EB0C0182
:103C8000DFF824E14FEA1154A4EB135C1EEA430F62
:103C900018BF9EEA445F73D023EA0E03DCF1200EC6
:103CA00021EA045143F4801332D322FA0CFE10EBC4
:103CB0000E0023FA0CFE41EB0E01CCF1200E03FAAC
:103CC0000EFE10EB0E0051F10001B1F5801FCCF19A
:103CD000200E32D201EB045112FA0EF2BDE8104070
:103CE00058BF7047401C38BF5FEA420218BF704798
:103CF000002814BF20F0010041F100014FEA410308
:103D000013F5001F38BF7047A1F1C04100F0F8BAA9
:103D1000012A43EB0302ACF1200CDCF11F0E32BF91
:103D20004FF0000E23FA0CF310EB030041EB0451AB
:103D3000B4EB115FD0D0A1EB045101F5801149081B
:103D40005FEA300001EB04510ED350F1000038BFA0
:103D500012FA0EFE08D1BDE81040C9E7401C38BF7A
:103D60005FEA4202CAD1C3E7BDE810404FEA41030F
:103D700013F5001F38BF7047A1F1C04100F0C0BA71
:103D80009EEA445F08D011EA5E0FBDE8104004BF10
:103D900001F0004100207047BDE8104070B500F010
:103DA00061FA00BF64FBBE3E0000E0FF2DE9C041A8
:103DB00030B4DFF8A0C23CEA111418BF3CEA131477
:103DC00000F0EC8081EA03051CEA111444EAD57482
:103DD00018BF1CEA131500F0C780A4EB05044FF0D0
:103DE000004545EAC12145EAC32341EA505143EA6F
:103DF000525304F17F74994204F500344FEAC02015
:103E00004FEAC22208BF904200F09C804FEA13653F
:103E10000FF24016765D4FEA134506FB05F7C7F132
:103E2000807706FB07F74FEAD737A7FB0368764290
:103E3000C8F58038A7FB06CE38BFA8F1010807FBFC
:103E400008E64FF0000EA6FB028CE6FB03CEDCF189
:103E5000000CCEF1004E38BFAEF1010EA6FB0C589F
:103E60004FF000074FF00005E6FB0E87A1FB08C6E8
:103E7000A0FB07CE16EB0E0645F10005E1FB07653A
:103E800015F1E04E7EBFA4F580345FEA46066D4131
:103E900016F1800745F100054FEA17274FEA06663D
:103EA00047EA0567A6F1DE46B6F1805F4FEA1525C1
:103EB0001FD9384624F0010C05EBC471BCF1FE6F2C
:103EC00001EB0C1102D8F0BCBDE8008124425CBFBC
:103ED00001F5801E9EEAC47F02D4F0BCBDE80081DB
:103EE000244238D4F0BCA1F1C041BDE8004100F04B
:103EF00007BA4FEAD22242EA43524FEAD323A7FB42
:103F000002864FEAD02040EA415007FB03661EEAD2
:103F10000E0F4FEAD12105FB026658BFA6EB0056F3
:103F2000B6EB00564FEA520E4EEAC37E18EB0E0E69
:103F300056EB530EBDD518EB02085E417F1C55F1C0
:103F40000005B6E74FF480154FF000074FF000066C
:103F50004FF00008ADE7F0BC4FF0000001F1C041A8
:103F600001F00041BDE8008111EA0C1F0CEA1315B5
:103F700000D00CE013EA0C1F00F025804FF0000089
:103F8000F0BC81EA030101F00041BDE80081F0BC12
:103F9000BDE8004181EA030100F0B2B9F0BCBDE820
:103FA000004170B500F05EF9097EFC3E00F007B8F4
:103FB00081EA03014FF0000001F00041704781EAFF
:103FC000030100F09DB9F0BCBDE800414FF00000D6
:103FD00021497047FFFDFBF9F7F5F4F2F0EEEDEB48
:103FE000E9E8E6E4E3E1E0DEDDDBDAD8D7D5D4D3F7
:103FF000D1D0CFCDCCCBCAC8C7C6C5C4C2C1C0BF43
:10400000BEBDBCBBBAB9B8B7B6B5B4B3B2B1B0AF48
:10401000AEADACABAAA9A8A8A7A6A5A4A3A3A2A12C
:10402000A09F9F9E9D9C9C9B9A99999897979695E7
:1040300095949393929191908F8F8E8E8D8C8C8B83
:104040008B8A89898888878786858584848383820B
:10405000828181800000FF070000F87F4FEA410362
:104060004FEA5353A3F58063D3F11E03C8BFD3F1C6
:10407000210C0CDD4FF0004242EAC12242EA5052CC
:1040800032FA03FC8CEAE17CACEBE1707047102B58
:10409000C4BF0020704703F5787CBCF1FF3F04D01B
:1040A0006FF0004282EA2100704770B500F0DAF844
:1040B0004992248000207047F2E710F0004248BF88
:1040C0004042B0FA80F310FA03F10AD0C3F11D03A5
:1040D00003F580634FEA415002EB035202EBD1211A
:1040E00070474FF000007047B0FA80F310FA03F108
:1040F0000AD0C3F11D0303F580634FEA41504FEA34
:10410000035202EBD12170474FF0000070470000CE
:10411000DFF848C170B51CEA111E1EBF1CEA13155A
:104120009EEA0C0F95EA0C0F00F06F8081EA030401
:1041300023EA4C134EEAD47E21EA4C1141F480115B
:1041400043F48013AE44A1FB024CA0FB0365AEF127
:104150007F7E361955EB0C05A1FB034C4CF1000397
:10416000A0FB021C16EB0C06654153F1000309424B
:1041700018BF46F0010613F4007F0BD14FEA03315C
:104180004FEA0530340341EA155140EA16506FF00A
:1041900003020AE04FEAC3214FEAC520F40241EAD4
:1041A000555140EA56506FF0020202EB2E4201EBED
:1041B000025585EACE710AD05FEA440C18BF24F09C
:1041C000004450F1000041F1000120EAD47040F2B7
:1041D000FE7C624500D270BDA84214BF4FF08044FF
:1041E0004FF04044002E08BF0024BEF1806FA8BFEE
:1041F000A1F1C041BDE8704080F282804FF0000024
:1042000001F1C04101F0004170479EEA0C0F0CEA39
:10421000131518BF95EA0C0F06D04FF0000081EA85
:10422000030E0EF0004170BD00F01CF88900013E45
:1042300000F007B800F009B84FEA430C5FEA5C5C95
:1042400008D081EA030100F05BB84FEA410C5FEA55
:104250005C5CF6D14FF00000014970470000FF0799
:104260000000F87F0EF1020E2EF0030E5EF8046BD4
:10427000364205D4012A43EB030515F5001F12D879
:10428000012841EB010C1CF5001F0CD80ED14FEAA0
:10429000D17C15F5001F0CEB4C0C0CF1020C08BF87
:1042A0004CEBD37C04E04FF0080C01E04FEAD37CE8
:1042B0000CEB4C0526FA05F606F00706B6F1040CE1
:1042C00006D20EEB860CBDE870404CF0010C604746
:1042D000DFE80CF0090B02024FF000414FF0000044
:1042E000A1F5002170BD19461046012851EB0104CB
:1042F00018BFD4F5001484BF002001F0004170BD48
:104300000808A0F500114FEA3101704710B591EA95
:10431000030F48BF83F000433FF5A8AC841A71EB4C
:10432000030C07D212198CF0004C43EB0C03001B5A
:1043300061EB0C01DFF8A4E14FEA1154A4EB135C2C
:104340001EEA430F18BF9EEA445F00F0B08023EAE4
:104350006E03524221EA0451C3EB6E0338BF5B1E69
:10436000DCF1200E25D322FA0CFE10EB0E0043FAEE
:104370000CFE41EB0E01CCF1200E03FA0EFE10EB09
:104380000E0051F10001CCF1200E29D412FA0EF2E8
:1043900001EB0451BDE8104058BF7047401C1CBFE2
:1043A000B2F1004F704700280CBF491C20F00100FB
:1043B000704712EB020E43EB030218BF4FF0010EE1
:1043C0004EEA4202ACF1200CDCF11E0E54D943FA45
:1043D0000CFE10EB0E0051F1FF31CCF11E0ED5D5C5
:1043E0000EF1010E12FA0EFE404141EB010101EB0C
:1043F000445C5FEA5C5C10D910EBDE7001EB0451A9
:1044000038BFBEF1004FBDE8104018BF704700280C
:104410000CBF491C20F00100704730D24FEAD42C69
:1044200011F5001124F400641BD0B1FA81F20B3AAB
:10443000A41AA41ED2F12003914030FA03F31943C9
:10444000904001EBCC71002C01EB0451BDE8104011
:10445000A8BF704701F1C0414FF0000001F00041DA
:104460007047B0FA80F310FA03F100D110BDE41ADE
:10447000173C4805C90AE4E701EB045110BD491097
:1044800001EB0451BDE810404FEA300002E04FF06C
:10449000000170474A0008BF0042F8D0B2F5001F83
:1044A00028BF704701F000414FF0000070479EEABE
:1044B000445F07D011EA5E0FBDE8104004BF002141
:1044C00000207047BDE8104070B5FFF7CBFE00BF7D
:1044D00040DFF63E83F00041104670470000E0FFE9
:1044E00090EA010F48BF81F0004100F16281421A59
:1044F0003CBF801A89184FEAD0524FF07F4C1CEA1B
:10450000410FA2EBD15318BF9CEA026F00F03B8031
:104510004FF0004C4CEA00204CEA012121FA03FC48
:1045200010EB0C0C1ED202F1FF325FEA1C2040EBB4
:10453000C25038BF70471CF07F0F4FEA400C18BFC5
:10454000BCF17F4F38BF7047C3F12003994008BFCB
:1045500020F00100BCF17F4F38BF7047A0F1C04090
:1045600000F01BB94FEA3C00000A40EBC25028BFE4
:104570001CF0FF0F4FEA400CE6D018BFBCF17F4F94
:1045800038BF7047EAE79CEA026F05D010EA5C0F7B
:1045900008BF00F00040704710B500F0B8F800BF49
:1045A00064FBBE3E41000B0ED3F19E0208D950F4CD
:1045B00000034FEA032323FA02F048BF404270474A
:1045C00010B500F0A4F800BF499224800020704785
:1045D0006FF0004282EA20007047000010F00041B6
:1045E00048BF4042B0FA80F310FA03F2C3F19D03D2
:1045F0000BD051EAC35101EB1220530638BF70476C
:1046000000F1010008BF20F0010070474FF47F0C5B
:104610001CEAD0121EBF1CEAD11392EA0C0F93EAD7
:104620000C0F00F0478090EA010F48BF42F48072FF
:104630004FF0004C4CEA00204CEA012102EB03024F
:10464000A0FB0113A2F50002002918BF43F00103EB
:104650005B0028BF4FEA330342EB22425FEA132C90
:104660004CEBC2502EBFBCEB436FB2F57C0F7047D2
:104670004FEA036CBCF1004F08BF20F00100B2F517
:104680007C0F38BF70470BD582F0FF0212F5803FD8
:10469000C8BF704700F1C040D8BF00F0004070476D
:1046A00000F5000C5FEA4C0C48BF7047B0F1C04009
:1046B00000F073B890EA010F0CEAD11348BF42F43E
:1046C0008072624538BF634504D280EA010000F081
:1046D0000040704710B500F01AF800BF8900013E95
:1046E00000F007B800F009B85FEA410C5FEA1C6C03
:1046F00008D080EA010000F050B85FEA400C5FEAA1
:104700001C6CF6D14FF00040A0F5800070470EF110
:10471000020E2EF0030E5EF8044B244204D44FEA3E
:104720004102B2F17F4F11D84FEA4003B3F17F4FFE
:104730000CD80ED14FEAD07CB2F17F4F0CEB4C0C71
:104740000CF1020C08BF4CEBD17C04E04FF0080CDC
:1047500001E04FEAD17C0CEB4C0324FA03F404F0A3
:104760000704B4F1040C06D20EEB840CBDE8104033
:104770004CF0010C6047DFE80CF0070802024FF034
:104780000040A0F5800010BD0846420018BFD2F1DD
:10479000807288BF00F0004010BDFF2141EAD05078
:1047A000C005704790EA010F48BF81F000413FF516
:1047B0009EAE421A04D882F00042A0EB02001144DF
:1047C0004FEAD0524FF07F4C1CEA410FA2EBD1537D
:1047D00018BF9CEA026F4AD04FF0004C4CEA002010
:1047E0004CEA012121FA03FCB0EB0C0C0FD412F0BF
:1047F000FE0F36D05FEA4C001DD5001240EBC250D0
:1048000038BF70471CF03F0F18BF70470BE0A2F194
:1048100001025FEA1C2040EBC25038BF70471CF019
:104820007F0F18BF7047C3F12003994014BF401E8B
:1048300020F00100704780084FEA122308BF70473C
:10484000B0FA80FCA2EB0C02CCF1280C60FA0CF060
:1048500093EA122F04BF00EBC25070474FEAC370B7
:104860007047130A5FEADC1008BF7047F6E79CEA5E
:10487000026F04D010EA5C0F08BF0020704710B52B
:10488000FFF745FF40DFF63E81F000407047000033
:1048900000000000000001020304060708090000F0
:1048A0000000010203040000C848000800000020C6
:1048B000F000000028010008B8490008F0000020BE
:1048C00040080000440100080000A543CDCC4C3D49
:1048D00000000000000000000000000000000000D8
:1048E00000000000000000000000000000000000C8
:1048F00000000000AE0100006400000000000000A5
:1049000000000000000000000000000000000000A7
:10491000640000000000000000000000700332008E
:10492000DC0332001804320098043200DC03320049
:10493000180432001804640000000A001804320051
:10494000DC0332001804320098043200DC03320029
:10495000180432001804640000000A001804320031
:1049600098043200280532009804320028053200ED
:10497000980432002805640028053200280532001A
:104980009804320028056400680664002805640065
:1049900000000A000000000000000000000000000D
:1049A00000000000000000000000000010000000F7
:0849B000010000000024F400E6
:04000005080000ED02
:00000001FF
